{
    "contractName": "Baba",
    "abi": [
        {
            "anonymous": false,
            "inputs": [
                {
                    "indexed": false,
                    "internalType": "string",
                    "name": "msg",
                    "type": "string"
                }
            ],
            "name": "Log",
            "type": "event"
        },
        {
            "inputs": [],
            "name": "baba",
            "outputs": [],
            "stateMutability": "nonpayable",
            "type": "function"
        },
        {
            "inputs": [],
            "name": "hip",
            "outputs": [],
            "stateMutability": "nonpayable",
            "type": "function"
        },
        {
            "inputs": [],
            "name": "pop",
            "outputs": [],
            "stateMutability": "nonpayable",
            "type": "function"
        },
        {
            "inputs": [],
            "name": "yeye",
            "outputs": [],
            "stateMutability": "nonpayable",
            "type": "function"
        }
    ],
    "bytecode": "608060405234801561001057600080fd5b5061011f806100206000396000f3fe6080604052348015600f57600080fd5b506004361060465760003560e01c80630ca21e9c14604b578063370ea142146053578063a4ece52c146053578063fa030ef1146053575b600080fd5b6051609a565b005b60517fcf34ef537ac33ee1ac626ca1587a0a7e8e51561e5514f8cb36afa1c5102b3bab60405160df906020808252600490820152634261626160e01b604082015260600190565b7fcf34ef537ac33ee1ac626ca1587a0a7e8e51561e5514f8cb36afa1c5102b3bab60405160df906020808252600490820152635965796560e01b604082015260600190565b60405180910390a156fea264697066735822122092ea8c6828ee256942d5e3c9eaed0bf208e02f5a77edbe9d327395de18a6e9d764736f6c634300080d0033",
    "sourcePath": "/Users/jiang/Myworker/solidity/METoken/contracts/Yeye.sol",
    "compiler": {
        "name": "solc",
        "version": "0.8.13+commit.abaa5c0e"
    },
    "functionHashes": {
        "baba()": "fa030ef1",
        "hip()": "370ea142",
        "pop()": "a4ece52c",
        "yeye()": "0ca21e9c"
    },
    "gasEstimates": {
        "creation": {
            "codeDepositCost": "57400",
            "executionCost": "105",
            "totalCost": "57505"
        },
        "external": {
            "baba()": "1805",
            "hip()": "1761",
            "pop()": "1783",
            "yeye()": "1751"
        }
    }
}