{
    "contractName": "CallContract",
    "abi": [
        {
            "inputs": [
                {
                    "internalType": "address",
                    "name": "_Address",
                    "type": "address"
                }
            ],
            "name": "callGet2",
            "outputs": [
                {
                    "internalType": "uint256",
                    "name": "x",
                    "type": "uint256"
                }
            ],
            "stateMutability": "view",
            "type": "function"
        },
        {
            "inputs": [
                {
                    "internalType": "contract OutherContract",
                    "name": "_Address",
                    "type": "address"
                }
            ],
            "name": "callGetX",
            "outputs": [
                {
                    "internalType": "uint256",
                    "name": "x",
                    "type": "uint256"
                }
            ],
            "stateMutability": "view",
            "type": "function"
        },
        {
            "inputs": [
                {
                    "internalType": "address",
                    "name": "_Address",
                    "type": "address"
                },
                {
                    "internalType": "uint256",
                    "name": "x",
                    "type": "uint256"
                }
            ],
            "name": "callSetX",
            "outputs": [],
            "stateMutability": "nonpayable",
            "type": "function"
        },
        {
            "inputs": [
                {
                    "internalType": "address",
                    "name": "outherContract",
                    "type": "address"
                },
                {
                    "internalType": "uint256",
                    "name": "x",
                    "type": "uint256"
                }
            ],
            "name": "setXTransferETH",
            "outputs": [],
            "stateMutability": "payable",
            "type": "function"
        }
    ],
    "bytecode": "608060405234801561001057600080fd5b50610312806100206000396000f3fe60806040526004361061003f5760003560e01c80633004b163146100445780633ca065bb1461005957806366563e6914610079578063b2ad3ca5146100ab575b600080fd5b61005761005236600461027a565b6100cb565b005b34801561006557600080fd5b5061005761007436600461027a565b61012b565b34801561008557600080fd5b506100996100943660046102a6565b610189565b60405190815260200160405180910390f35b3480156100b757600080fd5b506100996100c63660046102a6565b6101f3565b60405163200c6cd560e11b8152600481018290526001600160a01b03831690634018d9aa9034906024016000604051808303818588803b15801561010e57600080fd5b505af1158015610122573d6000803e3d6000fd5b50505050505050565b60405163200c6cd560e11b8152600481018290526001600160a01b03831690634018d9aa90602401600060405180830381600087803b15801561016d57600080fd5b505af1158015610181573d6000803e3d6000fd5b505050505050565b6000816001600160a01b031663e276c7996040518163ffffffff1660e01b8152600401602060405180830381865afa1580156101c9573d6000803e3d6000fd5b505050506040513d601f19601f820116820180604052508101906101ed91906102c3565b92915050565b600080829050806001600160a01b031663e276c7996040518163ffffffff1660e01b8152600401602060405180830381865afa158015610237573d6000803e3d6000fd5b505050506040513d601f19601f8201168201806040525081019061025b91906102c3565b9392505050565b6001600160a01b038116811461027757600080fd5b50565b6000806040838503121561028d57600080fd5b823561029881610262565b946020939093013593505050565b6000602082840312156102b857600080fd5b813561025b81610262565b6000602082840312156102d557600080fd5b505191905056fea264697066735822122007aa93f14b7aee68fc4e1f6faa6aa2727f677219669a4cff8a5c8b8a7191037364736f6c634300080d0033",
    "sourcePath": "/Users/jiang/Myworker/solidity/METoken/contracts/OtherContract.sol",
    "compiler": {
        "name": "solc",
        "version": "0.8.13+commit.abaa5c0e"
    },
    "functionHashes": {
        "callGet2(address)": "b2ad3ca5",
        "callGetX(address)": "66563e69",
        "callSetX(address,uint256)": "3ca065bb",
        "setXTransferETH(address,uint256)": "3004b163"
    },
    "gasEstimates": {
        "creation": {
            "codeDepositCost": "157200",
            "executionCost": "202",
            "totalCost": "157402"
        },
        "external": {
            "callGet2(address)": "infinite",
            "callGetX(address)": "infinite",
            "callSetX(address,uint256)": "infinite",
            "setXTransferETH(address,uint256)": "infinite"
        }
    }
}