{
    "contractName": "Error",
    "abi": [
        {
            "inputs": [],
            "name": "TransferNotOwner",
            "type": "error"
        },
        {
            "inputs": [
                {
                    "internalType": "uint256",
                    "name": "tokenId",
                    "type": "uint256"
                },
                {
                    "internalType": "address",
                    "name": "newOwner",
                    "type": "address"
                }
            ],
            "name": "transferOwner",
            "outputs": [],
            "stateMutability": "nonpayable",
            "type": "function"
        }
    ],
    "bytecode": "608060405234801561001057600080fd5b50610112806100206000396000f3fe6080604052348015600f57600080fd5b506004361060285760003560e01c80631ebe85ba14602d575b600080fd5b603c603836600460a2565b603e565b005b6000828152602081905260409020546001600160a01b03163314607457604051631fe1241360e11b815260040160405180910390fd5b60009182526020829052604090912080546001600160a01b0319166001600160a01b03909216919091179055565b6000806040838503121560b457600080fd5b8235915060208301356001600160a01b038116811460d157600080fd5b80915050925092905056fea26469706673582212206db98bd65fd0c839e6b23ed0d758ee5f22547bf6481b1549f63f264431c97ad364736f6c634300080d0033",
    "sourcePath": "/Users/jiang/Myworker/solidity/METoken/contracts/Error.sol",
    "compiler": {
        "name": "solc",
        "version": "0.8.13+commit.abaa5c0e"
    },
    "functionHashes": {
        "transferOwner(uint256,address)": "1ebe85ba"
    },
    "gasEstimates": {
        "creation": {
            "codeDepositCost": "54800",
            "executionCost": "105",
            "totalCost": "54905"
        },
        "external": {
            "transferOwner(uint256,address)": "26823"
        }
    }
}