{
    "contractName": "Payable",
    "abi": [
        {
            "inputs": [],
            "stateMutability": "payable",
            "type": "constructor"
        },
        {
            "inputs": [],
            "name": "deposit",
            "outputs": [],
            "stateMutability": "payable",
            "type": "function"
        },
        {
            "inputs": [],
            "name": "notPayable",
            "outputs": [],
            "stateMutability": "nonpayable",
            "type": "function"
        },
        {
            "inputs": [],
            "name": "owner",
            "outputs": [
                {
                    "internalType": "address payable",
                    "name": "",
                    "type": "address"
                }
            ],
            "stateMutability": "view",
            "type": "function"
        },
        {
            "inputs": [
                {
                    "internalType": "address payable",
                    "name": "_to",
                    "type": "address"
                },
                {
                    "internalType": "uint256",
                    "name": "_amount",
                    "type": "uint256"
                }
            ],
            "name": "transfer",
            "outputs": [],
            "stateMutability": "nonpayable",
            "type": "function"
        },
        {
            "inputs": [],
            "name": "withdraw",
            "outputs": [],
            "stateMutability": "nonpayable",
            "type": "function"
        }
    ],
    "bytecode": "6080604052600080546001600160a01b03191633179055610281806100256000396000f3fe60806040526004361061004a5760003560e01c8063273884bd1461004f5780633ccfd60b1461005f5780638da5cb5b14610074578063a9059cbb146100b0578063d0e30db01461005d575b600080fd5b34801561005b57600080fd5b505b005b34801561006b57600080fd5b5061005d6100d0565b34801561008057600080fd5b50600054610094906001600160a01b031681565b6040516001600160a01b03909116815260200160405180910390f35b3480156100bc57600080fd5b5061005d6100cb366004610213565b610174565b600080546040514792916001600160a01b03169083908381818185875af1925050503d806000811461011e576040519150601f19603f3d011682016040523d82523d6000602084013e610123565b606091505b50509050806101705760405162461bcd60e51b81526020600482015260146024820152732330b4b632b2103a379039b2b7321022ba3432b960611b60448201526064015b60405180910390fd5b5050565b6000826001600160a01b03168260405160006040518083038185875af1925050503d80600081146101c1576040519150601f19603f3d011682016040523d82523d6000602084013e6101c6565b606091505b505090508061020e5760405162461bcd60e51b81526020600482015260146024820152732330b4b632b2103a379039b2b7321022ba3432b960611b6044820152606401610167565b505050565b6000806040838503121561022657600080fd5b82356001600160a01b038116811461023d57600080fd5b94602093909301359350505056fea2646970667358221220c7b04b7a85de17a32b60f14c38e47a8e1b06184c07460688cd1f954a66f74f4b64736f6c634300080d0033",
    "sourcePath": "/Users/jiang/Myworker/solidity/METoken/contracts/Payable.sol",
    "compiler": {
        "name": "solc",
        "version": "0.8.13+commit.abaa5c0e"
    },
    "functionHashes": {
        "deposit()": "d0e30db0",
        "notPayable()": "273884bd",
        "owner()": "8da5cb5b",
        "transfer(address,uint256)": "a9059cbb",
        "withdraw()": "3ccfd60b"
    },
    "gasEstimates": {
        "creation": {
            "codeDepositCost": "128200",
            "executionCost": "24388",
            "totalCost": "152588"
        },
        "external": {
            "deposit()": "162",
            "notPayable()": "101",
            "owner()": "2347",
            "transfer(address,uint256)": "infinite",
            "withdraw()": "infinite"
        }
    }
}