{
    "contractName": "ReceiveETH",
    "abi": [
        {
            "anonymous": false,
            "inputs": [
                {
                    "indexed": false,
                    "internalType": "uint256",
                    "name": "amount",
                    "type": "uint256"
                },
                {
                    "indexed": false,
                    "internalType": "uint256",
                    "name": "gas",
                    "type": "uint256"
                }
            ],
            "name": "Log",
            "type": "event"
        },
        {
            "inputs": [],
            "name": "getBalabce",
            "outputs": [
                {
                    "internalType": "uint256",
                    "name": "",
                    "type": "uint256"
                }
            ],
            "stateMutability": "view",
            "type": "function"
        },
        {
            "stateMutability": "payable",
            "type": "receive"
        }
    ],
    "bytecode": "608060405234801561001057600080fd5b5060bb8061001f6000396000f3fe60806040526004361060205760003560e01c8063252baf0014606657600080fd5b366061577fbd0faddf87043dd749c1b9d4dca8a12589b8cb5e2106832111ce23f219b14367345a6040805192835260208301919091520160405180910390a1005b600080fd5b348015607157600080fd5b504760405190815260200160405180910390f3fea26469706673582212208a9409816e3b0eeef1ddc21c605b94670d8fd1eddaece8738084b58514a76d9564736f6c634300080d0033",
    "sourcePath": "/Users/jiang/Myworker/solidity/METoken/contracts/SendETH.sol",
    "compiler": {
        "name": "solc",
        "version": "0.8.13+commit.abaa5c0e"
    },
    "functionHashes": {
        "getBalabce()": "252baf00"
    },
    "gasEstimates": {
        "creation": {
            "codeDepositCost": "37400",
            "executionCost": "87",
            "totalCost": "37487"
        },
        "external": {
            "getBalabce()": "148"
        }
    }
}