{
    "contractName": "SendETH",
    "abi": [
        {
            "inputs": [],
            "stateMutability": "payable",
            "type": "constructor"
        },
        {
            "inputs": [],
            "name": "SendFailed",
            "type": "error"
        },
        {
            "inputs": [
                {
                    "internalType": "address payable",
                    "name": "_to",
                    "type": "address"
                },
                {
                    "internalType": "uint256",
                    "name": "amount",
                    "type": "uint256"
                }
            ],
            "name": "callETH",
            "outputs": [],
            "stateMutability": "payable",
            "type": "function"
        },
        {
            "inputs": [
                {
                    "internalType": "address payable",
                    "name": "_to",
                    "type": "address"
                },
                {
                    "internalType": "uint256",
                    "name": "amount",
                    "type": "uint256"
                }
            ],
            "name": "sendETH",
            "outputs": [],
            "stateMutability": "payable",
            "type": "function"
        },
        {
            "inputs": [
                {
                    "internalType": "address payable",
                    "name": "_to",
                    "type": "address"
                },
                {
                    "internalType": "uint256",
                    "name": "amount",
                    "type": "uint256"
                }
            ],
            "name": "transferETH",
            "outputs": [],
            "stateMutability": "payable",
            "type": "function"
        },
        {
            "stateMutability": "payable",
            "type": "receive"
        }
    ],
    "bytecode": "60806040526101e4806100136000396000f3fe6080604052600436106100385760003560e01c806364a197f3146100445780637b1a4909146100595780638419cf501461006c57600080fd5b3661003f57005b600080fd5b610057610052366004610176565b61007f565b005b610057610067366004610176565b6100cc565b61005761007a366004610176565b610102565b6040516000906001600160a01b0384169083156108fc0290849084818181858888f19350505050905080156100c7576040516381063e5160e01b815260040160405180910390fd5b505050565b6040516001600160a01b0383169082156108fc029083906000818181858888f193505050501580156100c7573d6000803e3d6000fd5b6000826001600160a01b03168260405160006040518083038185875af1925050503d806000811461014f576040519150601f19603f3d011682016040523d82523d6000602084013e610154565b606091505b50509050806100c7576040516381063e5160e01b815260040160405180910390fd5b6000806040838503121561018957600080fd5b82356001600160a01b03811681146101a057600080fd5b94602093909301359350505056fea26469706673582212206f94a842bde36ffa8f6520e32aca56c6d06231b3334bf50d0d5b19edc3a5aa2564736f6c634300080d0033",
    "sourcePath": "/Users/jiang/Myworker/solidity/METoken/contracts/SendETH.sol",
    "compiler": {
        "name": "solc",
        "version": "0.8.13+commit.abaa5c0e"
    },
    "functionHashes": {
        "callETH(address,uint256)": "8419cf50",
        "sendETH(address,uint256)": "64a197f3",
        "transferETH(address,uint256)": "7b1a4909"
    },
    "gasEstimates": {
        "creation": {
            "codeDepositCost": "96800",
            "executionCost": "123",
            "totalCost": "96923"
        },
        "external": {
            "callETH(address,uint256)": "infinite",
            "sendETH(address,uint256)": "infinite",
            "transferETH(address,uint256)": "infinite"
        }
    }
}