{
    "contractName": "SendToFallback",
    "abi": [
        {
            "inputs": [
                {
                    "internalType": "address payable",
                    "name": "_to",
                    "type": "address"
                }
            ],
            "name": "callFallback",
            "outputs": [],
            "stateMutability": "payable",
            "type": "function"
        },
        {
            "inputs": [
                {
                    "internalType": "address payable",
                    "name": "_to",
                    "type": "address"
                }
            ],
            "name": "transferToFallback",
            "outputs": [],
            "stateMutability": "payable",
            "type": "function"
        }
    ],
    "bytecode": "608060405234801561001057600080fd5b50610193806100206000396000f3fe6080604052600436106100295760003560e01c80636ba87a531461002e578063cfc6cdaa14610043575b600080fd5b61004161003c36600461012d565b610056565b005b61004161005136600461012d565b6100f8565b6000816001600160a01b03163460405160006040518083038185875af1925050503d80600081146100a3576040519150601f19603f3d011682016040523d82523d6000602084013e6100a8565b606091505b50509050806100f45760405162461bcd60e51b81526020600482015260146024820152732330b4b632b2103a379039b2b7321022ba3432b960611b604482015260640160405180910390fd5b5050565b6040516001600160a01b038216903480156108fc02916000818181858888f193505050501580156100f4573d6000803e3d6000fd5b60006020828403121561013f57600080fd5b81356001600160a01b038116811461015657600080fd5b939250505056fea26469706673582212200144e91880ebc546cde36caab4b4127f4dd7b3da79312184f7c511232ec42fd664736f6c634300080d0033",
    "sourcePath": "/Users/jiang/Myworker/solidity/METoken/contracts/Payable.sol",
    "compiler": {
        "name": "solc",
        "version": "0.8.13+commit.abaa5c0e"
    },
    "functionHashes": {
        "callFallback(address)": "6ba87a53",
        "transferToFallback(address)": "cfc6cdaa"
    },
    "gasEstimates": {
        "creation": {
            "codeDepositCost": "80600",
            "executionCost": "129",
            "totalCost": "80729"
        },
        "external": {
            "callFallback(address)": "infinite",
            "transferToFallback(address)": "infinite"
        }
    }
}