{
    "contractName": "Test5",
    "abi": [
        {
            "inputs": [
                {
                    "internalType": "uint256",
                    "name": "",
                    "type": "uint256"
                }
            ],
            "name": "idToAddress",
            "outputs": [
                {
                    "internalType": "address",
                    "name": "",
                    "type": "address"
                }
            ],
            "stateMutability": "view",
            "type": "function"
        },
        {
            "inputs": [
                {
                    "internalType": "uint256[]",
                    "name": "a",
                    "type": "uint256[]"
                }
            ],
            "name": "insertionSort",
            "outputs": [
                {
                    "internalType": "uint256[]",
                    "name": "",
                    "type": "uint256[]"
                }
            ],
            "stateMutability": "pure",
            "type": "function"
        },
        {
            "inputs": [
                {
                    "internalType": "address",
                    "name": "",
                    "type": "address"
                }
            ],
            "name": "swapPair",
            "outputs": [
                {
                    "internalType": "address",
                    "name": "",
                    "type": "address"
                }
            ],
            "stateMutability": "view",
            "type": "function"
        },
        {
            "inputs": [
                {
                    "internalType": "uint256",
                    "name": "_Key",
                    "type": "uint256"
                },
                {
                    "internalType": "address",
                    "name": "_Value",
                    "type": "address"
                }
            ],
            "name": "writeMap",
            "outputs": [],
            "stateMutability": "nonpayable",
            "type": "function"
        }
    ],
    "bytecode": "608060405234801561001057600080fd5b5061045a806100206000396000f3fe608060405234801561001057600080fd5b506004361061004c5760003560e01c8063072721601461005157806314605b4a1461008f5780632a2d0c47146100d55780636297206f146100fe575b600080fd5b61008d61005f366004610232565b60009182526020829052604090912080546001600160a01b0319166001600160a01b03909216919091179055565b005b6100b861009d36600461025e565b6001602052600090815260409020546001600160a01b031681565b6040516001600160a01b0390911681526020015b60405180910390f35b6100b86100e3366004610280565b6000602081905290815260409020546001600160a01b031681565b61011161010c3660046102af565b61011e565b6040516100cc919061036d565b606060015b825181101561020f576000838281518110610140576101406103b1565b6020026020010151905060008290505b600181101580156101835750846101686001836103dd565b81518110610178576101786103b1565b602002602001015182105b156101db57846101946001836103dd565b815181106101a4576101a46103b1565b60200260200101518582815181106101be576101be6103b1565b6020908102919091010152806101d3816103f4565b915050610150565b818582815181106101ee576101ee6103b1565b602002602001018181525050505080806102079061040b565b915050610123565b5090919050565b80356001600160a01b038116811461022d57600080fd5b919050565b6000806040838503121561024557600080fd5b8235915061025560208401610216565b90509250929050565b60006020828403121561027057600080fd5b61027982610216565b9392505050565b60006020828403121561029257600080fd5b5035919050565b634e487b7160e01b600052604160045260246000fd5b600060208083850312156102c257600080fd5b823567ffffffffffffffff808211156102da57600080fd5b818501915085601f8301126102ee57600080fd5b81358181111561030057610300610299565b8060051b604051601f19603f8301168101818110858211171561032557610325610299565b60405291825284820192508381018501918883111561034357600080fd5b938501935b8285101561036157843584529385019392850192610348565b98975050505050505050565b6020808252825182820181905260009190848201906040850190845b818110156103a557835183529284019291840191600101610389565b50909695505050505050565b634e487b7160e01b600052603260045260246000fd5b634e487b7160e01b600052601160045260246000fd5b6000828210156103ef576103ef6103c7565b500390565b600081610403576104036103c7565b506000190190565b60006001820161041d5761041d6103c7565b506001019056fea2646970667358221220531a919c7bf86a76197687a66135021cef5b2455289b0023271852498303091464736f6c634300080d0033",
    "sourcePath": "/Users/jiang/Myworker/solidity/METoken/contracts/Test5.sol",
    "compiler": {
        "name": "solc",
        "version": "0.8.13+commit.abaa5c0e"
    },
    "functionHashes": {
        "idToAddress(uint256)": "2a2d0c47",
        "insertionSort(uint256[])": "6297206f",
        "swapPair(address)": "14605b4a",
        "writeMap(uint256,address)": "07272160"
    },
    "gasEstimates": {
        "creation": {
            "codeDepositCost": "222800",
            "executionCost": "263",
            "totalCost": "223063"
        },
        "external": {
            "idToAddress(uint256)": "2491",
            "insertionSort(uint256[])": "infinite",
            "swapPair(address)": "2547",
            "writeMap(uint256,address)": "24632"
        }
    }
}