{
    "contractName": "Test7",
    "abi": [
        {
            "anonymous": false,
            "inputs": [
                {
                    "indexed": true,
                    "internalType": "address",
                    "name": "from",
                    "type": "address"
                },
                {
                    "indexed": true,
                    "internalType": "address",
                    "name": "to",
                    "type": "address"
                },
                {
                    "indexed": false,
                    "internalType": "uint256",
                    "name": "value",
                    "type": "uint256"
                }
            ],
            "name": "Transfer",
            "type": "event"
        },
        {
            "inputs": [
                {
                    "internalType": "address",
                    "name": "",
                    "type": "address"
                }
            ],
            "name": "_balances",
            "outputs": [
                {
                    "internalType": "uint256",
                    "name": "",
                    "type": "uint256"
                }
            ],
            "stateMutability": "view",
            "type": "function"
        },
        {
            "inputs": [
                {
                    "internalType": "address",
                    "name": "from",
                    "type": "address"
                },
                {
                    "internalType": "address",
                    "name": "to",
                    "type": "address"
                },
                {
                    "internalType": "uint256",
                    "name": "amount",
                    "type": "uint256"
                }
            ],
            "name": "_transfer",
            "outputs": [],
            "stateMutability": "nonpayable",
            "type": "function"
        }
    ],
    "bytecode": "608060405234801561001057600080fd5b5061022a806100206000396000f3fe608060405234801561001057600080fd5b50600436106100365760003560e01c806330e0789e1461003b5780636ebcf60714610050575b600080fd5b61004e610049366004610151565b610082565b005b61007061005e36600461018d565b60006020819052908152604090205481565b60405190815260200160405180910390f35b6001600160a01b0383166000908152602081905260408120620f42408082558392906100af9084906101c5565b90915550506001600160a01b038216600090815260208190526040812080548392906100dc9084906101dc565b92505081905550816001600160a01b0316836001600160a01b03167fddf252ad1be2c89b69c2b068fc378daa952ba7f163c4a11628f55a4df523b3ef8360405161012891815260200190565b60405180910390a3505050565b80356001600160a01b038116811461014c57600080fd5b919050565b60008060006060848603121561016657600080fd5b61016f84610135565b925061017d60208501610135565b9150604084013590509250925092565b60006020828403121561019f57600080fd5b6101a882610135565b9392505050565b634e487b7160e01b600052601160045260246000fd5b6000828210156101d7576101d76101af565b500390565b600082198211156101ef576101ef6101af565b50019056fea2646970667358221220e257e15fb5700ef4fd81a0844d1b5ac921a4c3e5bab1d4be99a386aeb63d28ff64736f6c634300080d0033",
    "sourcePath": "/Users/jiang/Myworker/solidity/METoken/contracts/Test7.sol",
    "compiler": {
        "name": "solc",
        "version": "0.8.13+commit.abaa5c0e"
    },
    "functionHashes": {
        "_balances(address)": "6ebcf607",
        "_transfer(address,address,uint256)": "30e0789e"
    },
    "gasEstimates": {
        "creation": {
            "codeDepositCost": "110800",
            "executionCost": "159",
            "totalCost": "110959"
        },
        "external": {
            "_balances(address)": "2510",
            "_transfer(address,address,uint256)": "infinite"
        }
    }
}