{
    "contractName": "Test4",
    "abi": [
        {
            "inputs": [],
            "name": "initStudent1",
            "outputs": [],
            "stateMutability": "nonpayable",
            "type": "function"
        }
    ],
    "bytecode": "6080604052348015600f57600080fd5b5060738061001e6000396000f3fe6080604052348015600f57600080fd5b506004361060285760003560e01c8063a8b63e6f14602d575b600080fd5b603b6001606c556064606d55565b00fea26469706673582212207a7794ce9072c68a2732daa0969e8f5b2b0961ce88c8a6121c1dbf78aacca9ca64736f6c634300080d0033",
    "sourcePath": "/Users/jiang/Myworker/solidity/METoken/contracts/Test4.sol",
    "compiler": {
        "name": "solc",
        "version": "0.8.13+commit.abaa5c0e"
    },
    "functionHashes": {
        "initStudent1()": "a8b63e6f"
    },
    "gasEstimates": {
        "creation": {
            "codeDepositCost": "23000",
            "executionCost": "75",
            "totalCost": "23075"
        },
        "external": {
            "initStudent1()": "44322"
        }
    }
}